S017000041746D656C5F5155544D535F434D552E73726563DD
S11300000C943E000C945B000C945B000C945B001D
S11300100C945B000C945B000C945B000C945B00F0
S11300200C945B000C945B000C947A060C945B00BB
S11300300C945B000C945B000C945B000C94920792
S11300400C945B000C945B000C9488060C945B008D
S11300500C945B000C945B000C945B000C945B00B0
S11300600C945B000C945B000C945B000C945B00A0
S11300700C945B000C945B000C945B0011241FBE79
S1130080CFEFD0E1DEBFCDBF12E0A0E0B1E0E2E00F
S1130090F4E102C005900D92AC34B107D9F722E027
S11300A0ACE4B2E001C01D92A435B207E1F70E94AE
S11300B06F050C94FF090C940000EF92FF920F93CC
S11300C01F93CF93DF9381E08093D80080E00DEEFF
S11300D010E06FEE70E04EEE50E027EF30E0C6EF38
S11300E0D0E0A5EFB0E00F2EF4EFEF2EF12CF02DC1
S11300F0982F9295907FF8019083FB011082FA016A
S11301001082F901108218821C92F70110828F5F0D
S1130110863071F78EE08093E20084E08093E30000
S113012083E18093E40080E38093DE0080EA80939F
S1130130DB0082E08093D800FFEF20E782E0F150FB
S113014020408040E1F700C000008091D90082FB8C
S1130150882780F991E08927DF91CF911F910F9132
S1130160FF90EF900895EF92FF920F931F93829563
S1130170807F8093ED00822F880F880F880F8093F3
S1130180F400DA01C901689414F8B695A795979517
S113019087951694D1F78093F500DA01C901072EEB
S11301A07DE0B695A795979587957A95D1F7702DAB
S11301B08093F600DA01C901072E75E1B695A7957B
S11301C0979587957A95D1F7702D8093F7008E2DAA
S11301D0880F880F880F8093F000D801C7016894B6
S11301E014F8B695A795979587951694D1F78093AB
S11301F0F100D801C701072E7DE0B695A795979524
S113020087957A95D1F7702D8093F200D801C701B4
S1130210072E75E1B695A795979587957A95D1F7A9
S1130220702D8093F30060696093EF001F910F912C
S1130230FF90EF900895EF920F931F938295807F24
S11302408093ED00EEEEF0E080818F7B808310924E
S1130250F400802F880F880F880F8093F000D90155
S1130260C801689414F8B695A79597958795169440
S1130270D1F78093F100D901C801072E7DE0B6952E
S1130280A795979587957A95D1F7702D8093F2006D
S11302900F2EF5E13695279517950795FA95D1F721
S11302A0F02D0093F300662371F0FA018FEF860FAF
S11302B090E00196480F591FAAEFB0E081918C930A
S11302C0E417F507D9F760656093EF00EE20A1F01D
S11302D08091EE0086FD10C080E0EEEEF0E003C0F9
S11302E0908196FD09C0AFE9BFE01197F1F700C016
S11302F000008F5F8E11F4CF1F910F91EF9008953E
S1130300CF93DF931092ED008091EE008E75B1F4DF
S11303108091EF0086FF14C081E0ADEEB0E0EEEE18
S1130320F0E0CFEED0E0982F9295907F9C9390814F
S11303309E7561F4988196FD05C008C080E006C0F2
S113034080E004C08F5F843071F78FEFDF91CF912D
S113035008958FE98AB986E887B98BE184B980EC7E
S11303608093690088E08DBB78940895ECE7F0E011
S113037080E6808380818F7D808387E880937A0004
S113038008950F931F93CF93DF93CDB7DEB768978C
S11303900FB6F894DEBF0FBECDBF28E0EAE1F1E06E
S11303A0DE01119601900D922A95E1F728E0E2E230
S11303B0F1E0DE01199601900D922A95E1F728E00B
S11303C0EAE2F1E0DE01519601900D922A95E1F7FF
S11303D0FC0133968E010F5F1F4FAE014F5E5F4FDE
S11303E09E01275F3F4F80E08083D8019D918D015E
S11303F0BF0163507109DB019C93DA019D91AD014A
S11304006F5F7F4FDB019C93D9019D919D016F5FCD
S11304107F4FDB019C938F5F7296883029F7689633
S11304200FB6F894DEBF0FBECDBFDF91CF911F9101
S11304300F910895F999FECF0E94D609089580E09E
S113044090E00E941A0290930D0180930C0182E0C7
S113045090E00E941A02909319018093180184E09D
S113046090E00E941A029093500280934F0280E41D
S113047090E00E941A02909317018093160182E47F
S113048090E00E941A02909315018093140188E46D
S113049090E00E941A0290930F0180930E01109233
S11304A052020895F999FECF0E94DC090895ECE701
S11304B0F0E090818F71907E892B8083EAE7F0E0F1
S11304C0808180648083808184FFFDCF8091780067
S11304D020917900EAE7F0E09081906190832370A5
S11304E090E0922B08958695389A409AA9F090E06E
S11304F0EBE8FFE03197F1F700C000009F5F98132D
S1130500F7CF0DC0EBE8FFE03197F1F700C0000032
S11305109F5F9813F7CF08954098389808954098AE
S1130520389890E0EFCF389A409A089540983898D8
S113053008959C01245131092B3E3340D8F4BC0169
S113054080E090E00E94B90827E030E240E85AE3F6
S11305500E94470920E030E44CE955E40E94470931
S113056020E030E048E752E40E941D080E948A0817
S1130570CB0108958FEF9FEF0895CF92DF92EF9212
S1130580FF920F931F93CF938C01C5E0C12CD12C04
S11305907601F80181810E9457020E949902C80ED7
S11305A0D91EE11CF11CC150A1F7C701B60125E019
S11305B030E040E050E00E94B409C901CF911F919E
S11305C00F91FF90EF90DF90CF9008950F931F93BA
S11305D0CF93DF93EC018C0100571F4FCE010E9493
S11305E0BD029F838E836296C017D107B9F7DF914E
S11305F0CF911F910F910895AF92BF92CF92DF9246
S1130600EF920F931F93CF93DF93CDB7DEB7289765
S11306100FB6F894DEBF0FBECDBF5C01BC016A5FAC
S11306207F4F6E0182E0C80ED11CAE01465F5F4F62
S1130630F601DB018C9111969C919F0121503109A7
S1130640D9019C9380836E5E7F4F3296E417F50741
S113065081F70E94800188230CF45AC000910C0198
S113066010910D0120E030E00F2EF2E1000F111F78
S1130670221F331FFA95D1F7F02D90910B01192BFE
S11306800160E12CAE014F5F5F4F68E00E941B01E7
S11306908FE19EE40197F1F700C00000F501E25BF1
S11306A0FF4F96E9A90EB11C80819181D601119763
S11306B09C93D6018C937296B2E0CB0ED11CEA15B2
S11306C0FB0591F70E948001882324F100910C011D
S11306D010910D0120E030E00F2EF2E1000F111F08
S11306E0221F331FFA95D1F7F02D90910B01192B8E
S11306F00260E12CAE014F5F5F4F68E00E941B0176
S11307008FE19EE40197F1F700C0000081E003C08F
S113071080E001C080E028960FB6F894DEBF0FBEDB
S1130720CDBFDF91CF911F910F91EF90DF90CF90CC
S1130730BF90AF9008959C018B5B910984349340E2
S1130740B0F42A3A83E0380770F490E09F5FE92F11
S1130750F0E0EE0FFF1FEE5CFE4F40815181241745
S11307603507A0F301C090E0892F90E008958FEF42
S113077090E00895CF92DF92EF92FF92CF93FC0125
S11307809BB18081880F880F282F2C71892F837E3D
S1130790822B8BB98091180190911901892BC1F09A
S11307A0C0E0C12CD12C760182E00E9457020E9445
S11307B09B03C80ED91EE11CF11CCF5F2C2F30E027
S11307C080911801909119012817390768F303C023
S11307D0C12CD12C7601C701B60125E030E040E000
S11307E050E00E94B409C901CF91FF90EF90DF90CF
S11307F0CF9008950F931F93CF93DF93EC018C0157
S113080000571F4FCE010E94BA039D838C836296CA
S1130810C017D107B9F7DF91CF911F910F910895B8
S1130820AF92BF92CF92DF92EF920F931F93CF9329
S1130830DF93CDB7DEB728970FB6F894DEBF0FBEAF
S1130840CDBF5C01BC016C5F7F4F6E0182E0C80EBE
S1130850D11CAE01465F5F4FF601DB018C9111960E
S11308609C919F0121503109D9019C9380836E5E34
S11308707F4F3296E417F50781F70E9480018823A1
S11308800CF45AC000910C0110910D0120E030E0ED
S11308900F2EF2E1000F111F221F331FFA95D1F71B
S11308A0F02D90910B01192B0460E12CAE014F5FE8
S11308B05F4F68E00E941B018FE19EE40197F1F70E
S11308C000C00000F501E45BFF4F94E9A90EB11CE0
S11308D080819181D60111979C93D6018C93729655
S11308E0B2E0CB0ED11CEA15FB0591F70E94800102
S11308F0882324F100910C0110910D0120E030E0D7
S11309000F2EF2E1000F111F221F331FFA95D1F7AA
S1130910F02D90910B01192B0560E12CAE014F5F76
S11309205F4F68E00E941B018FE19EE40197F1F79D
S113093000C0000081E003C080E001C080E0289690
S11309400FB6F894DEBF0FBECDBFDF91CF911F91DC
S11309500F91EF90DF90CF90BF90AF90089514BCAB
S113096082E085BD98EC97BD80936E000895109247
S11309706E0085B1847E85B988B18D7788B98BB1D5
S11309808D778BB90E9496020895BF92CF92DF9221
S1130990EF92FF920F931F93CF93DF93FC01038198
S11309A0468157819A01E0901001F09011014E1593
S11309B05F0508F07DC0C0901201D0901301C416E9
S11309C0D50608F075C0DC011396BC016F577F4F44
S11309D0FD01EA01102F0BC0258936892E153F052C
S11309E008F066C07296C216D30608F061C04217BA
S11309F0530710F00081A901C217D30710F4108126
S1130A00E901E617F70741F7FC0126813781E091F8
S1130A101601F09117017A01EE0EFF1EE216F3069D
S1130A2008F446C06A01CE1ADF0A2C153D0508F405
S1130A303FC0FD01EA0109C025893689E216F306A3
S1130A40B8F172962C153D0598F12C173D0728F046
S1130A50B0801B1511F0E9010B2D6E177F0761F7AC
S1130A608D569F4FFD01238134812417350728F0CB
S1130A706081161711F06013A9017296E817F9073F
S1130A8091F713964D915C91149720910001309148
S1130A9001012417350740F4EC91F0E0ED5FFE4FBF
S1130AA030812EB3232B2EBB52968A179B0749F70E
S1130AB0DF91CF911F910F91FF90EF90DF90CF9036
S1130AC0BF900895589A08955898089583B7817FE0
S1130AD0846083BF83B7816083BF88950895CF9373
S1130AE0DF93CDB7DEB7C059D1090FB6F894DEBF96
S1130AF00FBECDBF8FE39CE90197F1F700C0000062
S1130B0066E070E080E090E00E94520263E070E0F2
S1130B1082E090E00E9452026BEE73E084E090E089
S1130B200E94520264EF71E080E490E00E9452025D
S1130B3064EF71E082E490E00E94520268EC70E09D
S1130B4088E490E00E945202109252020E94A9018D
S1130B500E94B6010E945D00E12CF12C870120E087
S1130B6030E0A90160E084E00E94B3000E941F020B
S1130B700E9466059FEFE3ECF9E09150E040F040FD
S1130B80E1F700C00000809153028111B1C02FEF42
S1130B908FE097E2215080409040E1F700C00000D0
S1130BA0309B17C080915302811113C082E30E94CD
S1130BB0730282E30E94730282E30E947302EFEFE6
S1130BC0F7EA21E6E150F0402040E1F700C00000E0
S1130BD0EDCFE12CF12C00E010E120E030E040E02A
S1130BE050E160E085E00E94B300CE0101960E94CE
S1130BF0C101109251020E9462053099FECF0E94F9
S1130C0064050E9466050F2EFDEEAF2EB12CF02D6B
S1130C106894992496F80F2EFEEECF2ED12CF02D49
S1130C200E9493028FE19EE40197F1F700C0000057
S1130C30109251020E94B704CE0101960E94E6026E
S1130C40CE0101960E94FC02811103C084E10E943E
S1130C507302CE0101960E94FA03CE0101960E940E
S1130C601004811103C084E10E9473020E94620592
S1130C7080915102882359F00E949602CE01019678
S1130C800E94C5040E94AF0482E30E94730230995B
S1130C900DC00E949602EFE9FFE03197F1F700C022
S1130CA000000E9464050E9466050FC0FFEF23EC5C
S1130CB089E0F15020408040E1F700C00000F501D8
S1130CC09082F60180818F7D8083F5019082F60108
S1130CD080818F7D8083E12CF12C00E018E020E0FE
S1130CE030E040E058E060E084E00E94B30098CF38
S1130CF086B16FCF1F920F920FB60F9211248F936C
S1130D0082E083BF8F910F900FBE0F901F901895B4
S1130D101F920F920FB60F921124EF92FF920F932E
S1130D201F932F933F934F935F936F937F938F936F
S1130D309F93AF93BF93EF93FF93CF93DF9300D031
S1130D40CDB7DEB78091E00084FFC5C080E4809316
S1130D50ED008091F000869586958695813109F0A5
S1130D6040C0809153028111C1C00E9480019091C2
S1130D70F20092959695977090930B012091F30051
S1130D80220F220F220F922B90930B0120914F02DE
S1130D903091500239832A8388230CF490C0409107
S1130DA00C0150910D018A0120E030E00F2EF2E198
S1130DB0000F111F221F331FFA95D1F7F02D542F66
S1130DC0442760E070E0042B152B262B372B03619E
S1130DD0192BE12CAE014F5F5F4F62E00E941B01B3
S1130DE06EC08091F000869586958695823151F487
S1130DF080915302811106C00E94620581E08093B4
S1130E0053025DC08091F000869586958695843165
S1130E1009F04CC08091EF008F70853009F046C016
S1130E2002C09F5F03C091E0EAEFF0E08FEF890F0B
S1130E308230E1F028F4882341F0813061F023C04E
S1130E408330C1F08430D1F01EC080811092000143
S1130E5080930101E6CF808120910001309101014E
S1130E60282B3093010120930001DBCF80818093F4
S1130E700201D7CF808180934D02D3CF8091FA00B5
S1130E8080934C0202C0953060F2809100019091F1
S1130E90010181589C40873E934088F4809102016F
S1130EA0823368F481E08093510209C08091F0009C
S1130EB0869586958695853111F410925102E12C20
S1130EC0F12C00E018E020E030E040E058E060E081
S1130ED084E00E94B30080E48093ED00EEEEF0E045
S1130EE080818F7D80830E94960203C08091F000F0
S1130EF089CF0F900F90DF91CF91FF91EF91BF9128
S1130F00AF919F918F917F916F915F914F913F919D
S1130F102F911F910F91FF90EF900F900FBE0F90A4
S1130F201F9018951F920F920FB60F9211240F93D2
S1130F301F932F933F934F935F936F937F938F935D
S1130F409F93AF93BF93CF93DF93EF93FF938091DE
S1130F504E028F5F80934E0290914E028091020167
S1130F60981708F044C00E9493028EB34EB36EB338
S1130F702EB3E5B1487050E0559547955595479582
S1130F8082FB002700F910E0402B512B607270E0C7
S1130F907595679575956795462B572B207430E0AA
S1130FA03595279535952795CA01822B932B8E2B42
S1130FB085B99EB38EB328B180789270892B822B29
S1130FC088B93EB38EB32BB1807190E0880F991F1E
S1130FD0880F991F880F991F3170C32F30E0D32FCA
S1130FE0CC0FDD1FC82BD92BC22BCBB90BC085B1BD
S1130FF0847E85B988B18D7788B98BB18D778BB9AB
S11310000E94960280914E02843610F010924E0295
S1131010FF91EF91DF91CF91BF91AF919F918F910C
S11310207F916F915F914F913F912F911F910F91FC
S11310300F900FBE0F901F9018955058BB27AA27EA
S11310400E9435080C940D090E94FF0838F00E9494
S1131050060920F039F49F3F19F426F40C94FC0897
S11310600EF4E095E7FB0C94F608E92F0E941E09A4
S113107058F3BA17620773078407950720F079F4C9
S1131080A6F50C9440090EF4E0950B2EBA2FA02D72
S11310900B01B90190010C01CA01A0011124FF2721
S11310A0591B99F0593F50F4503E68F11A16F0401C
S11310B0A22F232F342F4427585FF3CF469537951B
S11310C02795A795F0405395C9F77EF41F16BA0BE0
S11310D0620B730B840BBAF09150A1F0FF0FBB1F8E
S11310E0661F771F881FC2F70EC0BA0F621F731FD7
S11310F0841F48F4879577956795B795F7959E3F34
S113110008F0B0CF9395880F08F09927EE0F9795C4
S1131110879508950E94260988F09F5798F0B92F63
S11311209927B751B0F0E1F0660F771F881F991F18
S11311301AF0BA95C9F714C0B13091F00E94400971
S1131140B1E008950C944009672F782F8827B85F81
S113115039F0B93FCCF3869577956795B395D9F770
S11311603EF490958095709561957F4F8F4F9F4F7A
S11311700895E89409C097FB3EF490958095709586
S113118061957F4F8F4F9F4F9923A9F0F92F96E9CF
S1131190BB279395F695879577956795B795F11144
S11311A0F8CFFAF4BB0F11F460FF1BC06F5F7F4FE1
S11311B08F4F9F4F16C0882311F096E911C07723F3
S11311C021F09EE8872F762F05C0662371F096E8FC
S11311D0862F70E060E02AF09A95660F771F881FCB
S11311E0DAF7880F9695879597F9089597F99F6789
S11311F080E870E060E008959FEF80EC089500249B
S11312000A941616170618060906089500240A9467
S113121012161306140605060895092E0394000CED
S113122011F4882352F0BB0F40F4BF2B11F460FF7C
S113123004C06F5F7F4F8F4F9F4F089557FD9058A5
S1131240440F551F59F05F3F71F04795880F97FB86
S1131250991F61F09F3F79F0879508951216130640
S11312601406551FF2CF4695F1DF08C0161617066F
S11312701806991FF1CF86957105610508940895A4
S1131280E894BB2766277727CB0197F908950E9436
S11312905A090C940D090E94FF0838F00E940609AF
S11312A020F0952311F00C94F6080C94FC081124FA
S11312B00C9441090E941E0970F3959FC1F3950F88
S11312C050E0551F629FF001729FBB27F00DB11DC6
S11312D0639FAA27F00DB11DAA1F649F6627B00D56
S11312E0A11D661F829F2227B00DA11D621F739F3F
S11312F0B00DA11D621F839FA00D611D221F749F4D
S11313003327A00D611D231F849F600D211D822F93
S1131310762F6A2F11249F5750409AF0F1F08823BA
S11313204AF0EE0FFF1FBB1F661F771F881F9150E7
S11313305040A9F79E3F510580F00C94F6080C9498
S113134041095F3FE4F3983ED4F38695779567951A
S1131350B795F795E7959F5FC1F7FE2B880F911D11
S11313609695879597F90895A1E21A2EAA1BBB1B9F
S1131370FD010DC0AA1FBB1FEE1FFF1FA217B3075D
S1131380E407F50720F0A21BB30BE40BF50B661F73
S1131390771F881F991F1A9469F760957095809537
S11313A090959B01AC01BD01CF010895A8E1B0E087
S11313B042E050E00C94E3090E94F109272F0C94B9
S11313C0F209DC01CB01FC01F999FECF06C0F2BDA4
S11313D0E1BDF89A319600B40D9241505040B8F7EF
S11313E00895262FF999FECF1FBA92BD81BD20BD65
S11313F00FB6F894FA9AF99A0FBE01960895F894E4
S1051400FFCF18
S1131402740E140102040810204080FF0500C80075
S11314129411540B0A00F4010A000706030205049E
S11314220100010100010703040004070305080980
S1131432060AAA03A703A403A1039E039B0398031A
S1131442940391038D038A03860382037E037B0341
S1131452770372036E036A03660361035D03580331
S113146253034F034A03450340033B03360330034C
S11314722B03260320031B0315030F030A03040390
S1131482FE02F802F202EC02E602DF02D902D30201
S1131492CC02C602BF02B902B202AC02A5029E028B
S11314A2970291028A0283027C0275026E0268022A
S11314B261025A0253024C0245023E0237023002D2
S11314C2290222021B0215020E0207020002F9017E
S11314D2F201EC01E501DE01D801D101CB01C40125
S11314E2BE01B701B101AA01A4019E0198019201B2
S11314F28C01860180017A0174016E016801630125
S11315025D01580152014D01470142013D0138017B
S113151233012E01290124011F011A0115011101B0
S11315220C0108010301FF00FB00F600F200EE00CB
S1131532EA00E600E200DE00DB00D700D300CF00C1
S10F1542CC00C800C500C200BE000100BF
S9030000FC
