S01400005155544D535F414D555F56322E737265634D
S11300000C943E000C945B000C945B000C945B001D
S11300100C945B000C945B000C945B000C945B00F0
S11300200C945B000C945B000C945B000C945B00E0
S11300300C945B000C945B000C945B000C945B00D0
S11300400C945B000C940C090C9477080C945B00E2
S11300500C945B000C945B000C944D080C945B00B6
S11300600C945B000C945B000C945B000C945B00A0
S11300700C945B000C945B000C945B0011241FBE79
S1130080CFEFD0E1DEBFCDBF11E0A0E0B1E0E6EA02
S1130090F9E102C005900D92A830B107D9F721E02B
S11300A0A8E0B1E001C01D92A238B207E1F70E94B6
S11300B08B060C94D10C0C940000EF92FF920F93DA
S11300C01F93CF93DF9381E08093D80080E00DEEFF
S11300D010E06FEE70E04EEE50E027EF30E0C6EF38
S11300E0D0E0A5EFB0E00F2EF4EFEF2EF12CF02DC1
S11300F0982F9295907FF8019083FB011082FA016A
S11301001082F901108218821C92F70110828F5F0D
S1130110863071F78EE08093E20084E08093E30000
S113012083E18093E40080E38093DE0080EA80939F
S1130130DB0082E08093D800FFEF20E782E0F150FB
S113014020408040E1F700C000008091D90082FB8C
S1130150882780F991E08927DF91CF911F910F9132
S1130160FF90EF900895EF92FF920F931F93829563
S1130170807F8093ED00822F880F880F880F8093F3
S1130180F400DA01C901689414F8B695A795979517
S113019087951694D1F78093F500DA01C901072EEB
S11301A07DE0B695A795979587957A95D1F7702DAB
S11301B08093F600DA01C901072E75E1B695A7957B
S11301C0979587957A95D1F7702D8093F7008E2DAA
S11301D0880F880F880F8093F000D801C7016894B6
S11301E014F8B695A795979587951694D1F78093AB
S11301F0F100D801C701072E7DE0B695A795979524
S113020087957A95D1F7702D8093F200D801C701B4
S1130210072E75E1B695A795979587957A95D1F7A9
S1130220702D8093F30060696093EF001F910F912C
S1130230FF90EF900895EF920F931F938295807F24
S11302408093ED00EEEEF0E080818F7B808310924E
S1130250F400802F880F880F880F8093F000D90155
S1130260C801689414F8B695A79597958795169440
S1130270D1F78093F100D901C801072E7DE0B6952E
S1130280A795979587957A95D1F7702D8093F2006D
S11302900F2EF5E13695279517950795FA95D1F721
S11302A0F02D0093F300662371F0FA018FEF860FAF
S11302B090E00196480F591FAAEFB0E081918C930A
S11302C0E417F507D9F760656093EF00EE20A1F01D
S11302D08091EE0086FD10C080E0EEEEF0E003C0F9
S11302E0908196FD09C0AFE9BFE01197F1F700C016
S11302F000008F5F8E11F4CF1F910F91EF9008953E
S1130300CF93DF931092ED008091EE008E75B1F4DF
S11303108091EF0086FF14C081E0ADEEB0E0EEEE18
S1130320F0E0CFEED0E0982F9295907F9C9390814F
S11303309E7561F4988196FD05C008C080E006C0F2
S113034080E004C08F5F843071F78FEFDF91CF912D
S11303500895F999FECF0E94A80C0895F999FECF4B
S11303600E94AE0C089580E090E00E94A901909351
S113037076018093750182E090E00E94A901909338
S1130380780180937701089581E08093680060E0AC
S11303908CE20E94710988E180936A000895AC019F
S11303A04E5F5F4F88599F4FFA0132971082319602
S11303B010829A01205F3F4FFA01118A108A11922C
S11303C01192E217F307C9F74E5D5F4F48175907BB
S11303D059F7089586EC84B98BE88AB987EA87B916
S11303E015B88BB18A688BB9479A459A2F98409A69
S11303F0089514BC85E085BD81E080936E00089566
S11304000F931F93CF93DF931F92CDB7DEB78C0169
S113041019820E942B0AF801018110E020E030E0EB
S1130420322F212F102F0027026124603860AE0183
S11304304F5F5F4F60E00E94F70B81E00F90DF9108
S1130440CF911F910F91089510920E014198089534
S1130450419A0895CF93DF93EC018981882391F029
S113046090E08617970729F1FE01B2968BA18823A5
S113047041F090E086179707F1F0B29681818111DF
S113048012C0EF0180910A01811105C08091080119
S11304908F5F809308016983CE010E940002882344
S11304A0D9F380E00BC090E08617970731F481E020
S11304B005C081E003C081E001C082E0DF91CF91FB
S11304C008958F929F92BF92CF92DF92EF92FF9204
S11304D00F931F93CF93DF93CDB7DEB728970FB653
S11304E0F894DEBF0FBECDBF8C01F62EE42E66E07D
S11304F0620FCE0101960E94D709498150E0542F22
S113050044278A81482BAB81B0E0BA2FAA278C817B
S11305104D01882A8D8190E0982F88272E81822B87
S11305202F8130E0322F22276885262BF80131965F
S113053009591F4F70E0BB24B39460816F114DC003
S113054062E0E616D1F16E1520F0A1E0EA16B9F0EA
S113055043C0B4E0EB1621F065E0E616F9F03CC0C8
S1130560528B418B948A838A968B858B308F278B11
S1130570609109016F5F609309017B2D2EC0528346
S11305804183948283829683858330872783609115
S113059009016F5F609309017B2D1FC0528F418F4A
S11305A0948E838E968F858F30A3278F6091090157
S11305B06F5F609309017B2D10C052874187948639
S11305C0838696878587308B2787609109016F5FC3
S11305D0609309017B2D01C07B2DB296E017F107D2
S11305E009F0ABCF81E0711101C080E028960FB60D
S11305F0F894DEBF0FBECDBFDF91CF911F910F9155
S1130600FF90EF90DF90CF90BF909F908F900895D0
S11306106F927F928F929F92AF92BF92CF92DF920E
S1130620EF920F931F93CF93DF93CDB7DEB7289745
S11306300FB6F894DEBF0FBECDBFCAACDBACACAC1A
S1130640BDAC6EAC7FAC8E01065D1F4F4E0182E0E7
S1130650880E911C9E012E5C3F4FF401D8018D91B0
S11306609D918D01D3014D915D916D917C91139775
S1130670480F591F611D711D4D935D936D937C93BC
S11306801397D5014D915C91782F692F481759071D
S113069010F4742F652FD5017C9311966C93D601B9
S11306A04D915C91782F692F8417950710F4742F5E
S11306B0652FD6017C9311966C93AF01415051097B
S11306C0DA019C93808332960217130739F60E944D
S11306D08001E12C04E610E220E032E0AE014F5F3D
S11306E05F4F68E00E941B018FE99FE00197F1F7DB
S11306F000C00000FE01F2969E01265C3F4F8191EE
S11307009191D3014D915D916D917C911397480F17
S1130710591F611D711D4D935D936D937C931397C8
S1130720D5014D915C91782F692F4817590710F422
S1130730742F652FD5017C9311966C93D6014D913E
S11307405C91782F692F8417950710F4742F652F07
S1130750D6017C9311966C93D40111979C93D40188
S11307608C93B2E08B0E911CE217F30741F60E94C2
S11307708001E12C05E610E220E032E0AE014F5F9B
S11307805F4F68E00E941B018FE99FE00197F1F73A
S113079000C0000080E090E028960FB6F894DEBF19
S11307A00FBECDBFDF91CF911F910F91EF90DF90DE
S11307B0CF90BF90AF909F908F907F906F9008954F
S11307C06F927F928F929F92AF92BF92CF92DF925D
S11307D0EF920F931F93CF93DF93CDB7DEB7289794
S11307E00FB6F894DEBF0FBECDBFCAACDBACACAC69
S11307F0BDAC6EAC7FAC8E01065E1F4F4E0182E035
S1130800880E911C9E012E5D3F4FF401D8018D91FD
S11308109D918D01D5014D915C91782F692F4817D9
S1130820590710F4742F652FD5017C9311966C939E
S1130830D6014D915C91782F692F8417950710F498
S1130840742F652FD6017C9311966C93D3014D912F
S11308505D916D917C911397480F591F611D711D16
S11308604D935D936D937C931397AF014150510960
S1130870DA019C93808332960217130739F60E949B
S11308808001E12C0AE010E220E032E0AE014F5F8B
S11308905F4F68E00E941B018FE99FE00197F1F729
S11308A000C00000FE01B2969E01265D3F4F81917B
S11308B09191D5014D915C91782F692F4817590773
S11308C010F4742F652FD5017C9311966C93D60187
S11308D04D915C91782F692F8417950710F4742F2C
S11308E0652FD6017C9311966C93D3014D915D9144
S11308F06D917C911397480F591F611D711D4D9384
S11309005D936D937C931397D40111979C93D401B9
S11309108C93B2E08B0E911CE217F30741F60E9410
S11309208001E12C0BE010E220E032E0AE014F5FE9
S11309305F4F68E00E941B018FE99FE00197F1F788
S113094000C0000080E028960FB6F894DEBF0FBE0A
S1130950CDBFDF91CF911F910F91EF90DF90CF909A
S1130960BF90AF909F908F907F906F9008952F923B
S11309703F924F925F926F927F928F929F92AF922B
S1130980BF92CF92DF92EF92FF920F931F93CF9378
S1130990DF93CDB7DEB728970FB6F894DEBF0FBE4E
S11309A0CDBF782E692E562E472E242E352E922E0C
S11309B0832EC801B70128E130E040E050E00E94F6
S11309C0860C122F032FC601B50128E130E040E068
S11309D050E00E94860CF22ED32E49825A826B82FA
S11309E07C820D831E830E94800100917501109109
S11309F0760120E030E00F2EFDE0000F111F221FD2
S1130A00331FFA95D1F7F02D01603260E12CAE016D
S1130A104F5F5F4F66E00E941B018FE99FE00197E3
S1130A20F1F700C0000089829A823B822C82DD8229
S1130A30FE820E948001009175011091760120E0F0
S1130A4030E00F2EFDE0000F111F221F331FFA9517
S1130A50D1F7F02D02603260AE014F5F5F4F66E068
S1130A600E941B018FE99FE00197F1F700C000008D
S1130A7080E028960FB6F894DEBF0FBECDBFDF919D
S1130A80CF911F910F91FF90EF90DF90CF90BF9087
S1130A90AF909F908F907F906F905F904F903F901A
S1130AA02F900895882319F0813019F008955F98E4
S1130AB0089559980895882319F0813019F00895FC
S1130AC05F9A0895599A08954695613019F08111F5
S1130AD021C00895882309F444C020E030E05998E7
S1130AE04423C1F1932FEBE8FFE03197F1F700C005
S1130AF000009F5F9413F7CF2AC0EBE8FFE0319723
S1130B00F1F700C000009F5F9413F7CF2F5F281305
S1130B10E6CF089520E030E05F98442301F1932F5D
S1130B20EBE8FFE03197F1F700C000009F5F9413FA
S1130B30F7CF12C0EBE8FFE03197F1F700C00000F7
S1130B409F5F9413F7CF2F5F2813E6CF0895599A28
S1130B50932FD3CF599ADACF5F9A932FEBCF5F9A23
S1130B60F2CF0895CF93DF931F92CDB7DEB7898379
S1130B700E94280288B188B9F894FF24F39488B1BC
S1130B808F2588B98090750190907601A12CB12CA5
S1130B90072E7DE0880C991CAA1CBB1C7A95D1F702
S1130BA0702D83E0882A6894B1F80E948001E12CBA
S1130BB095018401AE014F5F5F4F6F2D0E941B01B1
S1130BC044E660E082E00E94640544E66F2D82E022
S1130BD00E946405D4CFEF92FF921F93CF93DF93CB
S1130BE0182F7B0181E0810F0E941C0AC82F82E02C
S1130BF0810F0E941C0ACF734C2F50E0440F551FE5
S1130C00440F551F440F551F829586958770EA013E
S1130C10C82B84E0810F0E941C0A8F718430C9F0B4
S1130C2028F4813061F18230A9F13FC08530E1F0D0
S1130C308331D9F5BE01C7010E942A02813019F01F
S1130C40823021F032C082E00E94B20583E00E942B
S1130C50B205212F44E06C2FC7010E94610281116B
S1130C6024C086E00E94B205212F45E06C2FC70105
S1130C700E946102811119C086E00E94B205212FF1
S1130C8041E06C2FC7010E94610281110EC086E011
S1130C900E94B205212F42E06C2FC7010E9461021D
S1130CA0811103C086E00E94B205DF91CF911F91AC
S1130CB0FF90EF900895CF93DF93EC010E94C70952
S1130CC08370823071F08330B1F0813009F5BE0158
S1130CD080E60E94EB0541E060E08CE20E94880916
S1130CE017C0BE0180E70E94EB0542E060E08CE2A1
S1130CF00E9488090DC0BE0180E70E94EB05BE0179
S1130D0080E60E94EB0543E060E08CE20E948809E3
S1130D10DF91CF910895CF93DF93CDB7DEB7669778
S1130D200FB6F894DEBF0FBECDBF6AEE73E082E06B
S1130D3090E00E94AE0162E070E080E090E00E94EA
S1130D40AE018FE39CE90197F1F700C000000E9417
S1130D50EA010E94B3010E9428029FEF20E782E08B
S1130D60915020408040E1F700C000000E947D0CBB
S1130D708FE091E00E94CF010E945D000E94A009D3
S1130D800E94C4010E94F901E12CF12C870120E0AA
S1130D9030E0A90164E085E00E94B30060E08CE2E9
S1130DA00E947109789410920801198243E150E07D
S1130DB060E070E080E00E94420A40E050E0BA0146
S1130DC080E00E946D0B9FEF20E782E0915020406D
S1130DD08040E1F700C000000E94240281E00E94EC
S1130DE052051ABA19BA2EC042E360E081E00E94AB
S1130DF064050E942B0A01E110E024E038E0AE0112
S1130E004F5F5F4F60E00E94F70B8FE19EE4019714
S1130E10F1F700C0000089B38E3318F085E00E941A
S1130E20B205F79B0FC08CE20E941C0A8983837071
S1130E3021F08FE091E00E945B06F79860E08CE27D
S1130E400E94710980910801833071F681E00E944B
S1130E505B050E94280248EC60E082E00E94640581
S1130E609FEF29E688E1915020408040E1F700C0DF
S1130E700000F29BFECF81E080930B013E0197E0DE
S1130E80690E711C2E012DE0420E511C1E018BE0D7
S1130E90280E311C0F2EF2E29F2EF02DCE0141962A
S1130EA09C8B8B8B02979E8B8D8BF19B19C085E05D
S1130EB0E2E0F1E0DE01129601900D928A95E1F7ED
S1130EC00E942B0A04E110E024E038E0AE014E5FFA
S1130ED05F4F65E00E94F70B80E00E94520503C05B
S1130EE080E00E945B0580910B01882399F11092A8
S1130EF009010E9424028FE19EE40197F1F700C0EA
S1130F000000F29BF198F19B03C00E94240202C0EE
S1130F100E94280281E00E94520519BA89B38E33D7
S1130F2018F085E00E94B205F79B0BC08CE20E948A
S1130F301C0A8983837029F08FE091E00E945B068C
S1130F40F798809109018C3049F781E00E945B0594
S1130F5010920B01F29B8BC08FEF9FEF9A8B898BC2
S1130F60188A1F869E878D871C861B861F8218867B
S1130F7019861A861A821B821C821D82E12CF12C8E
S1130F806E0192E0C90ED11C7F926F925F924F92D4
S1130F903F922F929E9C80019F9C100D1124015F13
S1130FA01E4F8DB79EB782970FB6F8949EBF0FBEA3
S1130FB08DBFADB7BEB71196F801892D01900D9282
S1130FC08A95E1F70E94E0030FB6F894DEBF0FBEE6
S1130FD0CDBFDF92CF929C899F932B892F938E89CB
S1130FE08F939D899F938DB79EB782970FB6F89480
S1130FF09EBF0FBE8DBFADB7BEB71196F801892D48
S113100001900D928A95E1F70E9408039FEFE91A77
S1131010F90A0FB6F894DEBF0FBECDBF93E0E91610
S1131020F10409F0B1CFAA80BB80CC80DD80EF80D1
S1131030F88409851A8529893A894F8558896D85E7
S11310407E858B859C850E94B704F2988B859C8550
S11310508539914148F48D859E8584359B4020F0E7
S11310608F859889C39718F081E00E94B205E12C1E
S1131070F12C00E018E020E030E040E058E060E0CF
S113108085E00E94B3008FEF90E722E0815090400A
S11310902040E1F700C0000008CF1F920F920FB666
S11310A00F9211242F933F934F935F936F937F93EA
S11310B08F939F93AF93BF93EF93FF9381E00E942D
S11310C05B0583B1877F09F0F79AD89AFF91EF9176
S11310D0BF91AF919F918F917F916F915F914F914C
S11310E03F912F910F900FBE0F901F9018951F9254
S11310F00F920FB60F921124EF92FF920F931F934A
S11311002F933F934F935F936F937F938F939F930B
S1131110AF93BF93EF93FF938091E00085FF5FC08F
S113112080E58093ED00EEEEF0E080818F7D80839A
S11311308091F3008035F1F48091F20090E02091E9
S113114075013091760182179307A1F48091F00024
S1131150869586958695813069F4F29A1ABAEAEFF3
S1131160F0E0808180818081808180FF02C0F19ADB
S113117001C0F1988091F300803529F58091F20047
S113118090E0209175013091760182179307D9F48C
S11311908091F0008695869586958031A1F4EAEFDA
S11311A0F0E0808190E0982F882730814081208171
S11311B0832B019741F4822F90E0942B892B11F01B
S11311C0F19A01C0F198E12CF12C00E018E020E044
S11311D030E040E058E060E085E00E94B30080E544
S11311E08093ED00EEEEF0E080818F7D8083FF91AF
S11311F0EF91BF91AF919F918F917F916F915F918B
S11312004F913F912F911F910F91FF90EF900F906D
S11312100FBE0F901F9018951F920F920FB60F924A
S113122011242F933F934F935F936F937F938F93E7
S11312309F93AF93BF93EF93FF9380910C01909191
S11312400D01019690930D0180930C018AB38F5F79
S11312508ABB89B38F5F89BB8AB3853F28F0F29933
S113126003C084E00E94B20580910A01811114C078
S1131270809100012DE3829FC001112420910C0173
S113128030910D012817390738F010920D01109292
S11312900C0181E080930B01809101012DE3829F79
S11312A0C001112420910C0130910D012817390738
S11312B038F010920D0110920C0181E080930B0123
S11312C0FF91EF91BF91AF919F918F917F916F911A
S11312D05F914F913F912F910F900FBE0F901F90F0
S11312E01895CF93DF93D82FC62F2E9882E00E94B3
S11312F0770C8D2F0E94770C8C2F0E94770C2E9ADE
S1131300DF91CF9108952E980E94770C2E9A08951C
S11313101F93CF93DF93182FC62FD42F2E9885E0D9
S11313200E94770C812F0E94770C8D2F0E94770CDE
S11313308C2F0E94770C2E9ADF91CF911F910895E4
S1131340459887EC90E00197F1F700C00000459ABA
S113135040EE60E88FE00E94880964E08AE20E941F
S113136071096AEC89E20E94710961E088E20E94D5
S1131370710963E08BE20E94710961E08DE00E94D3
S1131380710940EE60E08FE00E9488090895CF93D0
S11313902E9880EA0E94770C80E00E94770CC82F78
S11313A080E00E94770C2E9A8C2FCF910895CF92D3
S11313B0DF92EF92FF920F931F93CF93DF93082F47
S11313C0F92E613710F410E901C014E96F7E21E0B1
S11313D030E0663611F020E030E0220F331F122B8C
S11313E02E98812F0E94770CC02FDF2D12700F2EA4
S11313F0FCE0CF2EF02DD12C6894EE24E3F8F12CF0
S113140004C080E00E94770C89932C2F201B30E0CD
S1131410112319F04E2D5F2D02C04C2D5D2D241784
S113142035077CF32E9ADF91CF911F910F91FF9096
S1131430EF90DF90CF900895CF93C82F2E9883E03C
S11314400E94770C8C2F0E94770C80E00E94770C0E
S11314502E9ACF91089580E30E941C0A83FF0CC04A
S113146080E40E941C0A83FF09C080E50E941C0AD4
S113147083FF06C080E0089580E3089580E4089522
S113148080E50895CF92DF92EF92FF926A017B018B
S1131490823009F469C028F4882361F08130B9F1FD
S11314A017C1843009F4BAC008F48BC0853009F43C
S11314B0E2C00EC1CB01BA01052E55E19695879580
S11314C0779567955A95D1F7502D80E00E94710960
S11314D0D701C601072E7DE0B695A7959795879508
S11314E07A95D1F7702D682F607E8E2D8370682BCE
S11314F0686081E00E94710999278F2D7E2D6D2DE2
S113150082E00E9471096C2D83E00E947109C70179
S1131510B601052E55E196958795779567955A9569
S1131520D1F7502D84E00E947109D701C601072E1E
S11315307DE0B695A795979587957A95D1F7702D07
S1131540682F607E8E2D8370682B686085E00E9412
S1131550710999278F2D7E2D6D2D86E00E947109CA
S11315606C2D87E00E947109C701B601052E55E173
S113157096958795779567955A95D1F7502D88E07C
S11315800E947109D701C601072E7DE0B695A79583
S1131590979587957A95D1F7702D682F607E8E2D5B
S11315A08370682B686089E00E94710999278F2DE8
S11315B07E2D6D2D8AE00E9471096C2D8BE00E94B6
S11315C07109C701B601052E55E196958795779562
S11315D067955A95D1F7502D80E10E947109D70182
S11315E0C601072E7DE0B695A795979587957A95C0
S11315F0D1F7702D682F607E8E2D8370682B686004
S113160081E10E94710999278F2D7E2D6D2D82E134
S11316100E9471096C2D83E10E947109C701B60112
S1131620052E55E196958795779567955A95D1F747
S1131630502D84E10E947109D701C601072E7DE077
S1131640B695A795979587957A95D1F7702D682FBC
S1131650607E8E2D8370682B686085E10E9471091D
S113166099278F2D7E2D6D2D86E10E9471096C2D99
S113167087E10E947109C701B601052E55E19695CF
S11316808795779567955A95D1F7502D88E10E94F3
S11316907109D701C601072E7DE0B695A7959795E8
S11316A087957A95D1F7702D682F607E8E2D837083
S11316B0682B686089E10E94710999278F2D7E2D1E
S11316C06D2D8AE10E9471096C2D8BE10E947109D4
S11316D0FF90EF90DF90CF900895CF92DF92EF923A
S11316E0FF926A017B0182300CF079C0882319F0E3
S11316F08130D1F176C0CB01BA01052E55E1969522
S11317008795779567955A95D1F7502D80E20E9479
S11317107109D701C601072E7DE0B695A795979567
S113172087957A95D1F7702D807E6E2D6370682B26
S113173081E20E94710999278F2D7E2D6D2D82E201
S11317400E9471096C2D83E20E947109C114D104B5
S1131750E104F10429F064E080E60E94710904C008
S113176064E680E60E947109C701B601052E55E1C1
S113177096958795779567955A95D1F7502D84E27C
S11317800E9471096E2D6370D701C601072E7DE09A
S1131790B695A795979587957A95D1F7702D807E04
S11317A0682B85E20E94710999278F2D7E2D6D2D5E
S11317B086E20E9471096C2D87E20E947109CD288E
S11317C0CE28CF2831F060E080E70E94710981E0E3
S11317D009C060E680E70E94710981E003C080E0EF
S11317E001C081E0FF90EF90DF90CF9008958F9239
S11317F09F92AF92BF92CF92DF92EF92FF920F939C
S11318001F93CF93DF93D82FF62E6A014801590115
S1131810882309F45FC063E00E947109C501B40123
S1131820052E55E196958795779567955A95D1F745
S1131830502D81E08D0F0E947109D501C401072E3E
S11318407DE0B695A795979587957A95D1F7702DF4
S1131850682F607E8A2D8370682B686082E08D0F0C
S11318600E94710999278B2D7A2D692D83E08D0FA4
S11318700E947109682D84E08D0F0E9471096F2DFB
S113188085E08D0F0E947109FF20A9F08601C6E052
S1131890CD0FFA94EF2CF12C8FEFE81AF80AEC0C28
S11318A0FD1CF80161918F018C2F0E947109CF5F9B
S11318B00E151F05B1F7D595D595D595D595D3506A
S11318C081E090E002C0880F991FDA95E2F7806802
S11318D00E948309DF91CF911F910F91FF90EF90A8
S11318E0DF90CF90BF90AF909F908F9008958EBD62
S11318F00DB407FEFDCF8EB5089585B78F7785BFEC
S113190081E58CBD81E08DBD1EBC0895A1E21A2E37
S1131910AA1BBB1BFD010DC0AA1FBB1FEE1FFF1F8F
S1131920A217B307E407F50720F0A21BB30BE40BDF
S1131930F50B661F771F881F991F1A9469F7609526
S11319407095809590959B01AC01BD01CF010895E0
S1131950A8E1B0E042E050E00C94B50C0E94C30C46
S1131960272F0C94C40CDC01CB01FC01F999FECFA8
S113197006C0F2BDE1BDF89A319600B40D92415013
S11319805040B8F70895262FF999FECF1FBA92BD9B
S113199081BD20BD0FB6F894FA9AF99A0FBE01964C
S10919A00895F894FFCF46
S10B19A6020A0E742D0000007A
S9030000FC
